{
  "_format": "hh3-artifact-1",
  "contractName": "Crowdfunding",
  "sourceName": "contracts/Crowdfunding.sol",
  "abi": [
    {
      "anonymous": false,
      "inputs": [
        {
          "indexed": true,
          "internalType": "address",
          "name": "projectAddress",
          "type": "address"
        },
        {
          "indexed": false,
          "internalType": "uint256",
          "name": "contributedAmount",
          "type": "uint256"
        },
        {
          "indexed": true,
          "internalType": "address",
          "name": "contributor",
          "type": "address"
        }
      ],
      "name": "ContributionReceived",
      "type": "event"
    },
    {
      "anonymous": false,
      "inputs": [
        {
          "indexed": false,
          "internalType": "address",
          "name": "projectContractAddress",
          "type": "address"
        },
        {
          "indexed": true,
          "internalType": "address",
          "name": "creator",
          "type": "address"
        },
        {
          "indexed": false,
          "internalType": "uint256",
          "name": "minContribution",
          "type": "uint256"
        },
        {
          "indexed": false,
          "internalType": "uint256",
          "name": "projectDeadline",
          "type": "uint256"
        },
        {
          "indexed": false,
          "internalType": "uint256",
          "name": "goalAmount",
          "type": "uint256"
        },
        {
          "indexed": false,
          "internalType": "uint256",
          "name": "currentAmount",
          "type": "uint256"
        },
        {
          "indexed": false,
          "internalType": "uint256",
          "name": "noOfContributors",
          "type": "uint256"
        },
        {
          "indexed": false,
          "internalType": "string",
          "name": "title",
          "type": "string"
        },
        {
          "indexed": false,
          "internalType": "string",
          "name": "desc",
          "type": "string"
        },
        {
          "indexed": false,
          "internalType": "uint256",
          "name": "currentState",
          "type": "uint256"
        },
        {
          "indexed": false,
          "internalType": "uint256",
          "name": "fundingModel",
          "type": "uint256"
        }
      ],
      "name": "ProjectStarted",
      "type": "event"
    },
    {
      "inputs": [
        {
          "internalType": "address",
          "name": "projectAddress",
          "type": "address"
        }
      ],
      "name": "contribute",
      "outputs": [],
      "stateMutability": "payable",
      "type": "function"
    },
    {
      "inputs": [
        {
          "internalType": "uint256",
          "name": "minimumContribution",
          "type": "uint256"
        },
        {
          "internalType": "uint256",
          "name": "deadline",
          "type": "uint256"
        },
        {
          "internalType": "uint256",
          "name": "targetContribution",
          "type": "uint256"
        },
        {
          "internalType": "string",
          "name": "projectTitle",
          "type": "string"
        },
        {
          "internalType": "string",
          "name": "projectDesc",
          "type": "string"
        },
        {
          "internalType": "string[]",
          "name": "milestoneTitles",
          "type": "string[]"
        },
        {
          "internalType": "uint16[]",
          "name": "milestoneReleaseBps",
          "type": "uint16[]"
        }
      ],
      "name": "createMilestoneProject",
      "outputs": [],
      "stateMutability": "nonpayable",
      "type": "function"
    },
    {
      "inputs": [
        {
          "internalType": "uint256",
          "name": "minimumContribution",
          "type": "uint256"
        },
        {
          "internalType": "uint256",
          "name": "deadline",
          "type": "uint256"
        },
        {
          "internalType": "uint256",
          "name": "targetContribution",
          "type": "uint256"
        },
        {
          "internalType": "string",
          "name": "projectTitle",
          "type": "string"
        },
        {
          "internalType": "string",
          "name": "projectDesc",
          "type": "string"
        }
      ],
      "name": "createProject",
      "outputs": [],
      "stateMutability": "nonpayable",
      "type": "function"
    },
    {
      "inputs": [],
      "name": "returnAllProjects",
      "outputs": [
        {
          "internalType": "contract Project[]",
          "name": "",
          "type": "address[]"
        }
      ],
      "stateMutability": "view",
      "type": "function"
    }
  ],
  "bytecode": "0x6080604052348015600e575f5ffd5b506137ab8061001c5f395ff3fe60806040526004361061003e575f3560e01c806373e888fd1461004257806385b6e28e146100575780639557a1e514610081578063a429078b146100a0575b5f5ffd5b610055610050366004610510565b6100bf565b005b348015610062575f5ffd5b5061006b6102bc565b604051610078919061053d565b60405180910390f35b34801561008c575f5ffd5b5061005561009b366004610754565b61031b565b3480156100ab575f5ffd5b506100556100ba366004610828565b610403565b5f8190505f816001600160a01b031663937e09b16040518163ffffffff1660e01b8152600401602060405180830381865afa158015610100573d5f5f3e3d5ffd5b505050506040513d601f19601f8201168201806040525081019061012491906108a8565b9050816001600160a01b0316633e0881a96040518163ffffffff1660e01b8152600401602060405180830381865afa158015610162573d5f5f3e3d5ffd5b505050506040513d601f19601f8201168201806040525081019061018691906108bf565b6101d05760405162461bcd60e51b815260206004820152601660248201527550726f6a656374206973206e6f74206f6e676f696e6760501b60448201526064015b60405180910390fd5b803410156102205760405162461bcd60e51b815260206004820181905260248201527f436f6e747269627574696f6e20616d6f756e7420697320746f6f206c6f77202160448201526064016101c7565b6040516373e888fd60e01b81523360048201526001600160a01b038316906373e888fd9034906024015f604051808303818588803b158015610260575f5ffd5b505af1158015610272573d5f5f3e3d5ffd5b50506040513481523393506001600160a01b03871692507f0829c5c9dc5d14e41b11cfca0f01f76eba69b648ddcf9f84afba16ba8a76bf1c915060200160405180910390a3505050565b60605f80548060200260200160405190810160405280929190818152602001828054801561031157602002820191905f5260205f20905b81546001600160a01b031681526001909101906020018083116102f3575b5050505050905090565b5f3388888888886001898960405161033290610503565b610344999897969594939291906109a4565b604051809103905ff08015801561035d573d5f5f3e3d5ffd5b505f80546001810182558180527f290decd9548b62a8d60345a988386fc84ba6bc95484008f6362f93160ef3e5630180546001600160a01b0319166001600160a01b03841617905590915033907fd3af5697670c63bdd6450941f3dd77b1f6231e9fa6226fc8d8421ca2468c25519083908b908b908b90808c8c8260015b6040516103f19a99989796959493929190610a45565b60405180910390a25050505050505050565b604080515f808252602082019092528161042d565b60608152602001906001900390816104185790505b50604080515f80825260208201909252919250505f3388888888885f898960405161045790610503565b610469999897969594939291906109a4565b604051809103905ff080158015610482573d5f5f3e3d5ffd5b505f80546001810182558180527f290decd9548b62a8d60345a988386fc84ba6bc95484008f6362f93160ef3e5630180546001600160a01b0319166001600160a01b03841617905590915033907fd3af5697670c63bdd6450941f3dd77b1f6231e9fa6226fc8d8421ca2468c25519083908b908b908b90808c8c825f6103db565b612cc280610ab483390190565b5f60208284031215610520575f5ffd5b81356001600160a01b0381168114610536575f5ffd5b9392505050565b602080825282518282018190525f918401906040840190835b8181101561057d5783516001600160a01b0316835260209384019390920191600101610556565b509095945050505050565b634e487b7160e01b5f52604160045260245ffd5b604051601f8201601f1916810167ffffffffffffffff811182821017156105c5576105c5610588565b604052919050565b5f82601f8301126105dc575f5ffd5b813567ffffffffffffffff8111156105f6576105f6610588565b610609601f8201601f191660200161059c565b81815284602083860101111561061d575f5ffd5b816020850160208301375f918101602001919091529392505050565b5f67ffffffffffffffff82111561065257610652610588565b5060051b60200190565b5f82601f83011261066b575f5ffd5b813561067e61067982610639565b61059c565b8082825260208201915060208360051b86010192508583111561069f575f5ffd5b602085015b838110156106e057803567ffffffffffffffff8111156106c2575f5ffd5b6106d1886020838a01016105cd565b845250602092830192016106a4565b5095945050505050565b5f82601f8301126106f9575f5ffd5b813561070761067982610639565b8082825260208201915060208360051b860101925085831115610728575f5ffd5b602085015b838110156106e057803561ffff81168114610746575f5ffd5b83526020928301920161072d565b5f5f5f5f5f5f5f60e0888a03121561076a575f5ffd5b873596506020880135955060408801359450606088013567ffffffffffffffff811115610795575f5ffd5b6107a18a828b016105cd565b945050608088013567ffffffffffffffff8111156107bd575f5ffd5b6107c98a828b016105cd565b93505060a088013567ffffffffffffffff8111156107e5575f5ffd5b6107f18a828b0161065c565b92505060c088013567ffffffffffffffff81111561080d575f5ffd5b6108198a828b016106ea565b91505092959891949750929550565b5f5f5f5f5f60a0868803121561083c575f5ffd5b853594506020860135935060408601359250606086013567ffffffffffffffff811115610867575f5ffd5b610873888289016105cd565b925050608086013567ffffffffffffffff81111561088f575f5ffd5b61089b888289016105cd565b9150509295509295909350565b5f602082840312156108b8575f5ffd5b5051919050565b5f602082840312156108cf575f5ffd5b81518015158114610536575f5ffd5b5f81518084528060208401602086015e5f602082860101526020601f19601f83011685010191505092915050565b5f82825180855260208501945060208160051b830101602085015f5b8381101561095a57601f198584030188526109448383516108de565b6020988901989093509190910190600101610928565b50909695505050505050565b5f8151808452602084019350602083015f5b8281101561099a57815161ffff16865260209586019590910190600101610978565b5093949350505050565b60018060a01b038a16815288602082015287604082015286606082015261012060808201525f6109d86101208301886108de565b82810360a08401526109ea81886108de565b905060028610610a0857634e487b7160e01b5f52602160045260245ffd5b8560c084015282810360e0840152610a20818661090c565b9050828103610100840152610a358185610966565b9c9b505050505050505050505050565b60018060a01b038b1681528960208201528860408201528760608201528660808201528560a082015261014060c08201525f610a856101408301876108de565b82810360e0840152610a9781876108de565b610100840195909552505061012001529897505050505050505056fe60806040526009805460ff19169055348015610019575f5ffd5b50604051612cc2380380612cc28339810160408190526100389161081b565b6001600160a01b0389166100855760405162461bcd60e51b815260206004820152600f60248201526e24b73b30b634b21031b932b0ba37b960891b60448201526064015b60405180910390fd5b5f88116100d45760405162461bcd60e51b815260206004820152601c60248201527f4d696e696d756d20636f6e747269627574696f6e206973207a65726f00000000604482015260640161007c565b5f86116101235760405162461bcd60e51b815260206004820152601b60248201527f54617267657420636f6e747269627574696f6e206973207a65726f0000000000604482015260640161007c565b4287116101725760405162461bcd60e51b815260206004820152601e60248201527f446561646c696e65206d75737420626520696e20746865206675747572650000604482015260640161007c565b5f8551116101c25760405162461bcd60e51b815260206004820152601660248201527f50726f6a656374207469746c6520697320656d70747900000000000000000000604482015260640161007c565b5f80546001600160a01b038b166001600160a01b031991821617909155600180549091163317905560028890556003879055600486905560076102058682610997565b5060086102128582610997565b506009805484919063ff0000001916630100000083600181111561023857610238610616565b02179055505f83600181111561025057610250610616565b036102d2578151156102915760405162461bcd60e51b815260206004820181905260248201525f516020612ca25f395f51905f52604482015260640161007c565b8051156102cd5760405162461bcd60e51b815260206004820181905260248201525f516020612ca25f395f51905f52604482015260640161007c565b610608565b5f82511161032d5760405162461bcd60e51b815260206004820152602260248201527f4d696c6573746f6e652070726f6a656374206e65656473206d696c6573746f6e604482015261657360f01b606482015260840161007c565b805182511461037e5760405162461bcd60e51b815260206004820152601f60248201527f4d696c6573746f6e6520696e707574206c656e677468206d69736d6174636800604482015260640161007c565b5f805b83518110156105a6575f84828151811061039d5761039d610a51565b602002602001015151116103f35760405162461bcd60e51b815260206004820152601860248201527f4d696c6573746f6e65207469746c6520697320656d7074790000000000000000604482015260640161007c565b5f83828151811061040657610406610a51565b602002602001015161ffff161161045f5760405162461bcd60e51b815260206004820152601c60248201527f4d696c6573746f6e652070657263656e74616765206973207a65726f00000000604482015260640161007c565b82818151811061047157610471610a51565b602002602001015161ffff16826104889190610a65565b9150600d6040518060e001604052808684815181106104a9576104a9610a51565b6020026020010151815260200160405180602001604052805f81525081526020018584815181106104dc576104dc610a51565b60209081029190910181015161ffff1682525f8282018190526040830181905260608301819052608090920182905283546001810185559382529020815191926006020190819061052d9082610997565b50602082015160018201906105429082610997565b50604082015160028201805461ffff90921661ffff1992831617905560608301516003830155608083015160048301805460a086015115156101000261ff00199315159390931693169290921717905560c090910151600590910155600101610381565b5061271081146106065760405162461bcd60e51b815260206004820152602560248201527f4d696c6573746f6e652070657263656e7461676573206d75737420746f74616c604482015264203130302560d81b606482015260840161007c565b505b505050505050505050610a8a565b634e487b7160e01b5f52602160045260245ffd5b80516001600160a01b0381168114610640575f5ffd5b919050565b634e487b7160e01b5f52604160045260245ffd5b604051601f8201601f191681016001600160401b038111828210171561068157610681610645565b604052919050565b5f82601f830112610698575f5ffd5b81516001600160401b038111156106b1576106b1610645565b6106c4601f8201601f1916602001610659565b8181528460208386010111156106d8575f5ffd5b8160208501602083015e5f918101602001919091529392505050565b805160028110610640575f5ffd5b5f6001600160401b0382111561071a5761071a610645565b5060051b60200190565b5f82601f830112610733575f5ffd5b815161074661074182610702565b610659565b8082825260208201915060208360051b860101925085831115610767575f5ffd5b602085015b838110156107a75780516001600160401b03811115610789575f5ffd5b610798886020838a0101610689565b8452506020928301920161076c565b5095945050505050565b5f82601f8301126107c0575f5ffd5b81516107ce61074182610702565b8082825260208201915060208360051b8601019250858311156107ef575f5ffd5b602085015b838110156107a757805161ffff8116811461080d575f5ffd5b8352602092830192016107f4565b5f5f5f5f5f5f5f5f5f6101208a8c031215610834575f5ffd5b61083d8a61062a565b60208b015160408c015160608d015160808e0151939c50919a50985096506001600160401b0381111561086e575f5ffd5b61087a8c828d01610689565b60a08c015190965090506001600160401b03811115610897575f5ffd5b6108a38c828d01610689565b9450506108b260c08b016106f4565b60e08b01519093506001600160401b038111156108cd575f5ffd5b6108d98c828d01610724565b6101008c015190935090506001600160401b038111156108f7575f5ffd5b6109038c828d016107b1565b9150509295985092959850929598565b600181811c9082168061092757607f821691505b60208210810361094557634e487b7160e01b5f52602260045260245ffd5b50919050565b601f82111561099257805f5260205f20601f840160051c810160208510156109705750805b601f840160051c820191505b8181101561098f575f815560010161097c565b50505b505050565b81516001600160401b038111156109b0576109b0610645565b6109c4816109be8454610913565b8461094b565b6020601f8211600181146109f6575f83156109df5750848201515b5f19600385901b1c1916600184901b17845561098f565b5f84815260208120601f198516915b82811015610a255787850151825560209485019460019092019101610a05565b5084821015610a4257868401515f19600387901b60f8161c191681555b50505050600190811b01905550565b634e487b7160e01b5f52603260045260245ffd5b80820180821115610a8457634e487b7160e01b5f52601160045260245ffd5b92915050565b61220b80610a975f395ff3fe608060405260043610610207575f3560e01c8063a2e54d7511610113578063c438b40f1161009d578063dae0f89d1161006d578063dae0f89d14610591578063e1f1c4a7146105ca578063efb98bcf146105df578063f8d02d95146105f3578063ff3a9c7e14610612575f5ffd5b8063c438b40f1461051c578063c59ee1dc1461053b578063cad329cb14610550578063d849e94f1461057d575f5ffd5b8063bc7dfa84116100e3578063bc7dfa841461049c578063bef1ef64146104bd578063c19d93fb146104db578063c3966409146104f4578063c3e20c9f14610508575f5ffd5b8063a2e54d7514610428578063a95185f014610447578063af157c1914610466578063b82c86d614610487575f5ffd5b806347e4835d1161019457806373e888fd1161016457806373e888fd146103c2578063782036fa146103d557806383273cd1146103ea5780638f4cf247146103ff578063937e09b114610413575f5ffd5b806347e4835d146103685780634e260f6f146103875780635413713a1461039c5780636f9fb98a146103b0575f5ffd5b80632a1fcb21116101da5780632a1fcb21146102b1578063378aa701146102d95780633e0881a9146102fa57806342e94c901461031e578063476a119b14610349575f5ffd5b806302d05d3f1461020b5780630d616d20146102465780632442e1cb1461025c57806329dcb0cf1461028e575b5f5ffd5b348015610216575f5ffd5b505f54610229906001600160a01b031681565b6040516001600160a01b0390911681526020015b60405180910390f35b348015610251575f5ffd5b5061025a61063c565b005b348015610267575f5ffd5b5061027b610276366004611c36565b6107df565b60405161023d9796959493929190611c7b565b348015610299575f5ffd5b506102a360035481565b60405190815260200161023d565b3480156102bc575f5ffd5b506102c661138881565b60405161ffff909116815260200161023d565b3480156102e4575f5ffd5b506102ed61098f565b60405161023d9190611cf8565b348015610305575f5ffd5b5061030e6109b6565b604051901515815260200161023d565b348015610329575f5ffd5b506102a3610338366004611d1c565b600c6020525f908152604090205481565b348015610354575f5ffd5b5061025a610363366004611d50565b6109d7565b348015610373575f5ffd5b5060095461030e9062010000900460ff1681565b348015610392575f5ffd5b506102a360065481565b3480156103a7575f5ffd5b5061025a610c80565b3480156103bb575f5ffd5b50476102a3565b61025a6103d0366004611d1c565b610f35565b3480156103e0575f5ffd5b506102a3600a5481565b3480156103f5575f5ffd5b506102a3600b5481565b34801561040a575f5ffd5b50600d546102a3565b34801561041e575f5ffd5b506102a360025481565b348015610433575f5ffd5b5061025a610442366004611c36565b61121c565b348015610452575f5ffd5b5061030e610461366004611c36565b611588565b348015610471575f5ffd5b5061047a6115dc565b60405161023d9190611e0d565b348015610492575f5ffd5b506102a360045481565b3480156104a7575f5ffd5b506104b061163c565b60405161023d9190611e58565b3480156104c8575f5ffd5b5060095461030e90610100900460ff1681565b3480156104e6575f5ffd5b506009546102ed9060ff1681565b3480156104ff575f5ffd5b506102ed6116c8565b348015610513575f5ffd5b506104b06116d6565b348015610527575f5ffd5b5061025a610536366004611c36565b6116e3565b348015610546575f5ffd5b506102a360055481565b34801561055b575f5ffd5b50600954610570906301000000900460ff1681565b60405161023d9190611e6a565b348015610588575f5ffd5b506102ed611928565b34801561059c575f5ffd5b5061030e6105ab366004611e84565b600e60209081525f928352604080842090915290825290205460ff1681565b3480156105d5575f5ffd5b506102c661271081565b3480156105ea575f5ffd5b506102a36119d1565b3480156105fe575f5ffd5b50600154610229906001600160a01b031681565b34801561061d575f5ffd5b506106266119ee565b60405161023d9a99989796959493929190611eae565b5f610645611b4f565b9050600181600281111561065b5761065b611cd0565b146106a45760405162461bcd60e51b8152602060048201526014602482015273141c9bda9958dd08191a59081b9bdd0819985a5b60621b60448201526064015b60405180910390fd5b335f908152600c6020526040902054806107005760405162461bcd60e51b815260206004820152601b60248201527f4e6f20636f6e747269627574696f6e20746f2077697468647261770000000000604482015260640161069b565b335f818152600c60205260408082208290555190919083908381818185875af1925050503d805f811461074e576040519150601f19603f3d011682016040523d82523d5f602084013e610753565b606091505b50509050806107a45760405162461bcd60e51b815260206004820152601a60248201527f436f6e747269627574696f6e20726566756e64206661696c6564000000000000604482015260640161069b565b60405182815233907f2ef47cadc7e07ee6cea296446c8ca85ff6955693411d8868f7a04b6850034f08906020015b60405180910390a2505050565b6060805f5f5f5f5f600d80549050881061080b5760405162461bcd60e51b815260040161069b90611f27565b5f600d898154811061081f5761081f611f52565b5f9182526020909120600690910201600281015460038201546004830154600584015484549495508594600186019461ffff16939260ff808216936101009092041691879061086d90611f66565b80601f016020809104026020016040519081016040528092919081815260200182805461089990611f66565b80156108e45780601f106108bb576101008083540402835291602001916108e4565b820191905f5260205f20905b8154815290600101906020018083116108c757829003601f168201915b505050505096508580546108f790611f66565b80601f016020809104026020016040519081016040528092919081815260200182805461092390611f66565b801561096e5780601f106109455761010080835404028352916020019161096e565b820191905f5260205f20905b81548152906001019060200180831161095157829003601f168201915b50505050509550975097509750975097509750975050919395979092949650565b5f60035442101561099f57505f90565b600454600554106109b05750600290565b50600190565b5f806109c061098f565b60028111156109d1576109d1611cd0565b14905090565b5f546001600160a01b03163314610a1f5760405162461bcd60e51b815260206004820152600c60248201526b27b7363c9031b932b0ba37b960a11b604482015260640161069b565b60016009546301000000900460ff166001811115610a3f57610a3f611cd0565b14610a5c5760405162461bcd60e51b815260040161069b90611f9e565b600d548210610a7d5760405162461bcd60e51b815260040161069b90611f27565b600a548214610ace5760405162461bcd60e51b815260206004820152601d60248201527f4d696c6573746f6e6573206d7573742062652073657175656e7469616c000000604482015260640161069b565b5f815111610b165760405162461bcd60e51b815260206004820152601560248201527445766964656e63652055524920697320656d70747960581b604482015260640161069b565b5f610b1f611b4f565b90506002816002811115610b3557610b35611cd0565b14610b7e5760405162461bcd60e51b8152602060048201526019602482015278141c9bda9958dd081a5cc81b9bdd081cdd58d8d95cdcd99d5b603a1b604482015260640161069b565b5f600d8481548110610b9257610b92611f52565b5f9182526020909120600690910201600481015490915060ff1615610bf95760405162461bcd60e51b815260206004820152601b60248201527f4d696c6573746f6e6520616c7265616479207375626d69747465640000000000604482015260640161069b565b6004810154610100900460ff1615610c235760405162461bcd60e51b815260040161069b90611fd5565b60048101805460ff191660019081179091558101610c418482612058565b50837f6c4ed5f8d6ddf265b243b3e007707e3374049d833dfc7791c66c06579aa10ff984604051610c729190611e58565b60405180910390a250505050565b5f546001600160a01b03163314610cc85760405162461bcd60e51b815260206004820152600c60248201526b27b7363c9031b932b0ba37b960a11b604482015260640161069b565b5f6009546301000000900460ff166001811115610ce757610ce7611cd0565b14610d405760405162461bcd60e51b8152602060048201526024808201527f4d696c6573746f6e652066756e64732072656c65617365206279206d696c6573604482015263746f6e6560e01b606482015260840161069b565b5f610d49611b4f565b90506002816002811115610d5f57610d5f611cd0565b14610da85760405162461bcd60e51b8152602060048201526019602482015278141c9bda9958dd081a5cc81b9bdd081cdd58d8d95cdcd99d5b603a1b604482015260640161069b565b60095462010000900460ff1615610e015760405162461bcd60e51b815260206004820152601760248201527f46756e647320616c72656164792077697468647261776e000000000000000000604482015260640161069b565b4780610e465760405162461bcd60e51b81526020600482015260146024820152734e6f2066756e647320746f20776974686472617760601b604482015260640161069b565b6009805462ff00001916620100001790555f80546040516001600160a01b039091169083908381818185875af1925050503d805f8114610ea1576040519150601f19603f3d011682016040523d82523d5f602084013e610ea6565b606091505b5050905080610ef75760405162461bcd60e51b815260206004820152601960248201527f43726561746f72207769746864726177616c206661696c656400000000000000604482015260640161069b565b5f546040518381526001600160a01b03909116907f0d53b74a6cb6d1fbd9dc6dc1d7714036c7c6a3f48350103a7011041eb32a4c5e906020016107d2565b6001546001600160a01b03163314610f8f5760405162461bcd60e51b815260206004820152601a60248201527f4f6e6c792063726f776466756e64696e6720636f6e7472616374000000000000604482015260640161069b565b610f97611928565b505f60095460ff166002811115610fb057610fb0611cd0565b14610ff65760405162461bcd60e51b815260206004820152601660248201527550726f6a656374206973206e6f74206f6e676f696e6760501b604482015260640161069b565b6001600160a01b0381166110425760405162461bcd60e51b815260206004820152601360248201527224b73b30b634b21031b7b73a3934b13aba37b960691b604482015260640161069b565b5f546001600160a01b03908116908216036110b05760405162461bcd60e51b815260206004820152602860248201527f43726561746f722063616e6e6f7420636f6e7472696275746520746f206f776e604482015267081c1c9bda9958dd60c21b606482015260840161069b565b6002543410156111025760405162461bcd60e51b815260206004820181905260248201527f436f6e747269627574696f6e20616d6f756e7420697320746f6f206c6f772021604482015260640161069b565b6001600160a01b0381165f908152600c6020526040812054900361117d57600f80546001810182555f9182527f8d1108e10bcb7c27dddfc02ed9d693a074039d026cf4ea4240b40f7d581ac8020180546001600160a01b0319166001600160a01b038416179055600680549161117783612127565b91905055505b6001600160a01b0381165f908152600c6020526040812080543492906111a490849061213f565b925050819055503460055f8282546111bc919061213f565b909155506111ca9050611928565b50806001600160a01b03167f5cdc4ab8d637538ead6cc1904d4160343656c8c82bd266635cfd31ac008fffe034600554604051611211929190918252602082015260400190565b60405180910390a250565b60016009546301000000900460ff16600181111561123c5761123c611cd0565b146112595760405162461bcd60e51b815260040161069b90611f9e565b600d54811061127a5760405162461bcd60e51b815260040161069b90611f27565b600a5481146112cb5760405162461bcd60e51b815260206004820152601d60248201527f4d696c6573746f6e6573206d7573742062652073657175656e7469616c000000604482015260640161069b565b5f600d82815481106112df576112df611f52565b5f9182526020909120600690910201600481015490915060ff1661133f5760405162461bcd60e51b8152602060048201526017602482015276135a5b195cdd1bdb99481b9bdd081cdd589b5a5d1d1959604a1b604482015260640161069b565b6004810154610100900460ff16156113695760405162461bcd60e51b815260040161069b90611fd5565b6113768160030154611c10565b6113ce5760405162461bcd60e51b8152602060048201526024808201527f4d696c6573746f6e65206c61636b7320636f6e7472696275746f7220617070726044820152631bdd985b60e21b606482015260840161069b565b600d545f906113df90600190612152565b83036113ec575047611415565b6002820154600554612710916114089161ffff90911690612165565b611412919061217c565b90505b5f811161145a5760405162461bcd60e51b81526020600482015260136024820152724e6f2066756e647320746f2072656c6561736560681b604482015260640161069b565b60048201805461ff00191661010017905560058201819055600b80548291905f9061148690849061213f565b9091555050600a8054905f61149a83612127565b90915550505f80546040516001600160a01b039091169083908381818185875af1925050503d805f81146114e9576040519150601f19603f3d011682016040523d82523d5f602084013e6114ee565b606091505b505090508061153f5760405162461bcd60e51b815260206004820152601b60248201527f4d696c6573746f6e65207769746864726177616c206661696c65640000000000604482015260640161069b565b5f546040518381526001600160a01b039091169085907fdbd743bc3f9961fbcd359c4a2e165188f1d435a00aeec41ad5ca64b9dd4f555a9060200160405180910390a350505050565b600d545f9082106115ab5760405162461bcd60e51b815260040161069b90611f27565b6115d6600d83815481106115c1576115c1611f52565b905f5260205f20906006020160030154611c10565b92915050565b6060600f80548060200260200160405190810160405280929190818152602001828054801561163257602002820191905f5260205f20905b81546001600160a01b03168152600190910190602001808311611614575b5050505050905090565b6008805461164990611f66565b80601f016020809104026020016040519081016040528092919081815260200182805461167590611f66565b80156116c05780601f10611697576101008083540402835291602001916116c0565b820191905f5260205f20905b8154815290600101906020018083116116a357829003601f168201915b505050505081565b5f6116d1611b4f565b905090565b6007805461164990611f66565b60016009546301000000900460ff16600181111561170357611703611cd0565b146117205760405162461bcd60e51b815260040161069b90611f9e565b600d5481106117415760405162461bcd60e51b815260040161069b90611f27565b335f908152600c602052604090205461179c5760405162461bcd60e51b815260206004820152601d60248201527f4f6e6c7920636f6e7472696275746f72732063616e20617070726f7665000000604482015260640161069b565b5f818152600e6020908152604080832033845290915290205460ff16156118055760405162461bcd60e51b815260206004820152601a60248201527f4d696c6573746f6e6520616c726561647920617070726f766564000000000000604482015260640161069b565b5f600d828154811061181957611819611f52565b5f9182526020909120600690910201600481015490915060ff166118795760405162461bcd60e51b8152602060048201526017602482015276135a5b195cdd1bdb99481b9bdd081cdd589b5a5d1d1959604a1b604482015260640161069b565b6004810154610100900460ff16156118a35760405162461bcd60e51b815260040161069b90611fd5565b5f828152600e602090815260408083203384528252808320805460ff19166001179055600c909152812054600383018054919290916118e390849061213f565b90915550506003810154604051908152339083907ffe731b8534f38a55c98725a977efe67da793f35fb32ca4d1d947c01d80259bc29060200160405180910390a35050565b5f5f61193261098f565b60095490915060ff16600281111561194c5761194c611cd0565b81600281111561195e5761195e611cd0565b146119c6576009805460ff811691839160ff1916600183600281111561198657611986611cd0565b02179055507fe8a97ea87e4388fa22d496b95a8ed5ced6717f49790318de2b928aaf37a021d881836040516119bc92919061219b565b60405180910390a1505b505060095460ff1690565b5f60035442106119e057505f90565b426003546116d19190612152565b5f8054600254600354600454600554600654600780546001600160a01b03909716979596949593949293919260609283929091829190611a2d90611f66565b80601f0160208091040260200160405190810160405280929190818152602001828054611a5990611f66565b8015611aa45780601f10611a7b57610100808354040283529160200191611aa4565b820191905f5260205f20905b815481529060010190602001808311611a8757829003601f168201915b5050505050935060088054611ab890611f66565b80601f0160208091040260200160405190810160405280929190818152602001828054611ae490611f66565b8015611b2f5780601f10611b0657610100808354040283529160200191611b2f565b820191905f5260205f20905b815481529060010190602001808311611b1257829003601f168201915b50505050509250611b3e61098f565b915047905090919293949596979899565b5f600354421015611ba25760405162461bcd60e51b815260206004820152601760248201527f446561646c696e6520686173206e6f7420706173736564000000000000000000604482015260640161069b565b5f611bab611928565b600954909150610100900460ff16611c0b576009805461ff0019166101001790556005546004546040517f40f5d4761e954e13fb6f3913116877d1842cf8ab9f5e4ebb4c737c8434ac6d0a92611c029285926121b6565b60405180910390a15b919050565b6005545f90611c229061138890612165565b611c2e61271084612165565b101592915050565b5f60208284031215611c46575f5ffd5b5035919050565b5f81518084528060208401602086015e5f602082860101526020601f19601f83011685010191505092915050565b60e081525f611c8d60e083018a611c4d565b8281036020840152611c9f818a611c4d565b61ffff989098166040840152505060608101949094529115156080840152151560a083015260c09091015292915050565b634e487b7160e01b5f52602160045260245ffd5b60038110611cf457611cf4611cd0565b9052565b602081016115d68284611ce4565b80356001600160a01b0381168114611c0b575f5ffd5b5f60208284031215611d2c575f5ffd5b611d3582611d06565b9392505050565b634e487b7160e01b5f52604160045260245ffd5b5f5f60408385031215611d61575f5ffd5b82359150602083013567ffffffffffffffff811115611d7e575f5ffd5b8301601f81018513611d8e575f5ffd5b803567ffffffffffffffff811115611da857611da8611d3c565b604051601f8201601f19908116603f0116810167ffffffffffffffff81118282101715611dd757611dd7611d3c565b604052818152828201602001871015611dee575f5ffd5b816020840160208301375f602083830101528093505050509250929050565b602080825282518282018190525f918401906040840190835b81811015611e4d5783516001600160a01b0316835260209384019390920191600101611e26565b509095945050505050565b602081525f611d356020830184611c4d565b6020810160028310611e7e57611e7e611cd0565b91905290565b5f5f60408385031215611e95575f5ffd5b82359150611ea560208401611d06565b90509250929050565b60018060a01b038b1681528960208201528860408201528760608201528660808201528560a082015261014060c08201525f611eee610140830187611c4d565b82810360e0840152611f008187611c4d565b915050611f11610100830185611ce4565b826101208301529b9a5050505050505050505050565b602080825260119082015270496e76616c6964206d696c6573746f6e6560781b604082015260600190565b634e487b7160e01b5f52603260045260245ffd5b600181811c90821680611f7a57607f821691505b602082108103611f9857634e487b7160e01b5f52602260045260245ffd5b50919050565b60208082526019908201527f50726f6a65637420686173206e6f206d696c6573746f6e657300000000000000604082015260600190565b6020808252601a908201527f4d696c6573746f6e6520616c72656164792072656c6561736564000000000000604082015260600190565b601f82111561205357805f5260205f20601f840160051c810160208510156120315750805b601f840160051c820191505b81811015612050575f815560010161203d565b50505b505050565b815167ffffffffffffffff81111561207257612072611d3c565b612086816120808454611f66565b8461200c565b6020601f8211600181146120b8575f83156120a15750848201515b5f19600385901b1c1916600184901b178455612050565b5f84815260208120601f198516915b828110156120e757878501518255602094850194600190920191016120c7565b508482101561210457868401515f19600387901b60f8161c191681555b50505050600190811b01905550565b634e487b7160e01b5f52601160045260245ffd5b5f6001820161213857612138612113565b5060010190565b808201808211156115d6576115d6612113565b818103818111156115d6576115d6612113565b80820281158282048414176115d6576115d6612113565b5f8261219657634e487b7160e01b5f52601260045260245ffd5b500490565b604081016121a98285611ce4565b611d356020830184611ce4565b606081016121c48286611ce4565b60208201939093526040015291905056fea264697066735822122009bfbc443d5fa3c59a24ac21de707de2b3565d7d06a9115356a4b6f7f1d5c27464736f6c634300081c0033416c6c2d6f722d6e6f7468696e6720686173206e6f206d696c6573746f6e6573a2646970667358221220d570ddfadeae5debe5d2591cdff4117a867a4e473f6be80e16ef772139a4cb3564736f6c634300081c0033",
  "linkReferences": {},
  "deployedLinkReferences": {},
  "immutableReferences": {},
  "inputSourceName": "project/contracts/Crowdfunding.sol",
  "buildInfoId": "solc-0_8_28-24adc72f8b9248901f68bdf980d7afdd50375ec6"
}