{
  "_format": "hh3-artifact-1",
  "contractName": "Crowdfunding",
  "sourceName": "contracts/Crowdfunding.sol",
  "abi": [
    {
      "anonymous": false,
      "inputs": [
        {
          "indexed": true,
          "internalType": "address",
          "name": "projectAddress",
          "type": "address"
        },
        {
          "indexed": false,
          "internalType": "uint256",
          "name": "contributedAmount",
          "type": "uint256"
        },
        {
          "indexed": true,
          "internalType": "address",
          "name": "contributor",
          "type": "address"
        }
      ],
      "name": "ContributionReceived",
      "type": "event"
    },
    {
      "anonymous": false,
      "inputs": [
        {
          "indexed": false,
          "internalType": "address",
          "name": "projectContractAddress",
          "type": "address"
        },
        {
          "indexed": true,
          "internalType": "address",
          "name": "creator",
          "type": "address"
        },
        {
          "indexed": false,
          "internalType": "uint256",
          "name": "minContribution",
          "type": "uint256"
        },
        {
          "indexed": false,
          "internalType": "uint256",
          "name": "projectDeadline",
          "type": "uint256"
        },
        {
          "indexed": false,
          "internalType": "uint256",
          "name": "goalAmount",
          "type": "uint256"
        },
        {
          "indexed": false,
          "internalType": "uint256",
          "name": "currentAmount",
          "type": "uint256"
        },
        {
          "indexed": false,
          "internalType": "uint256",
          "name": "noOfContributors",
          "type": "uint256"
        },
        {
          "indexed": false,
          "internalType": "string",
          "name": "title",
          "type": "string"
        },
        {
          "indexed": false,
          "internalType": "string",
          "name": "desc",
          "type": "string"
        },
        {
          "indexed": false,
          "internalType": "uint256",
          "name": "currentState",
          "type": "uint256"
        }
      ],
      "name": "ProjectStarted",
      "type": "event"
    },
    {
      "inputs": [
        {
          "internalType": "address",
          "name": "projectAddress",
          "type": "address"
        }
      ],
      "name": "contribute",
      "outputs": [],
      "stateMutability": "payable",
      "type": "function"
    },
    {
      "inputs": [
        {
          "internalType": "uint256",
          "name": "minimumContribution",
          "type": "uint256"
        },
        {
          "internalType": "uint256",
          "name": "deadline",
          "type": "uint256"
        },
        {
          "internalType": "uint256",
          "name": "targetContribution",
          "type": "uint256"
        },
        {
          "internalType": "string",
          "name": "projectTitle",
          "type": "string"
        },
        {
          "internalType": "string",
          "name": "projectDesc",
          "type": "string"
        }
      ],
      "name": "createProject",
      "outputs": [],
      "stateMutability": "nonpayable",
      "type": "function"
    },
    {
      "inputs": [],
      "name": "returnAllProjects",
      "outputs": [
        {
          "internalType": "contract Project[]",
          "name": "",
          "type": "address[]"
        }
      ],
      "stateMutability": "view",
      "type": "function"
    }
  ],
  "bytecode": "0x6080604052348015600e575f5ffd5b50611c348061001c5f395ff3fe608060405260043610610033575f3560e01c806373e888fd1461003757806385b6e28e1461004c578063a429078b14610076575b5f5ffd5b61004a6100453660046103d4565b610095565b005b348015610057575f5ffd5b50610060610292565b60405161006d9190610401565b60405180910390f35b348015610081575f5ffd5b5061004a6100903660046104eb565b6102f1565b5f8190505f816001600160a01b031663937e09b16040518163ffffffff1660e01b8152600401602060405180830381865afa1580156100d6573d5f5f3e3d5ffd5b505050506040513d601f19601f820116820180604052508101906100fa919061056b565b9050816001600160a01b0316633e0881a96040518163ffffffff1660e01b8152600401602060405180830381865afa158015610138573d5f5f3e3d5ffd5b505050506040513d601f19601f8201168201806040525081019061015c9190610582565b6101a65760405162461bcd60e51b815260206004820152601660248201527550726f6a656374206973206e6f74206f6e676f696e6760501b60448201526064015b60405180910390fd5b803410156101f65760405162461bcd60e51b815260206004820181905260248201527f436f6e747269627574696f6e20616d6f756e7420697320746f6f206c6f772021604482015260640161019d565b6040516373e888fd60e01b81523360048201526001600160a01b038316906373e888fd9034906024015f604051808303818588803b158015610236575f5ffd5b505af1158015610248573d5f5f3e3d5ffd5b50506040513481523393506001600160a01b03871692507f0829c5c9dc5d14e41b11cfca0f01f76eba69b648ddcf9f84afba16ba8a76bf1c915060200160405180910390a3505050565b60605f8054806020026020016040519081016040528092919081815260200182805480156102e757602002820191905f5260205f20905b81546001600160a01b031681526001909101906020018083116102c9575b5050505050905090565b5f338686868686604051610304906103c7565b610313969594939291906105cf565b604051809103905ff08015801561032c573d5f5f3e3d5ffd5b505f80546001810182558180527f290decd9548b62a8d60345a988386fc84ba6bc95484008f6362f93160ef3e5630180546001600160a01b0319166001600160a01b03841617905560405191925033917f73cc6512e7ecc537961f06c435b8c36be561c23851b3c990165a8cd7968dc6c6916103b79185918b918b918b9181908c908c908390610620565b60405180910390a2505050505050565b6115748061068b83390190565b5f602082840312156103e4575f5ffd5b81356001600160a01b03811681146103fa575f5ffd5b9392505050565b602080825282518282018190525f918401906040840190835b818110156104415783516001600160a01b031683526020938401939092019160010161041a565b509095945050505050565b634e487b7160e01b5f52604160045260245ffd5b5f82601f83011261046f575f5ffd5b813567ffffffffffffffff8111156104895761048961044c565b604051601f8201601f19908116603f0116810167ffffffffffffffff811182821017156104b8576104b861044c565b6040528181528382016020018510156104cf575f5ffd5b816020850160208301375f918101602001919091529392505050565b5f5f5f5f5f60a086880312156104ff575f5ffd5b853594506020860135935060408601359250606086013567ffffffffffffffff81111561052a575f5ffd5b61053688828901610460565b925050608086013567ffffffffffffffff811115610552575f5ffd5b61055e88828901610460565b9150509295509295909350565b5f6020828403121561057b575f5ffd5b5051919050565b5f60208284031215610592575f5ffd5b815180151581146103fa575f5ffd5b5f81518084528060208401602086015e5f602082860101526020601f19601f83011685010191505092915050565b60018060a01b038716815285602082015284604082015283606082015260c060808201525f61060160c08301856105a1565b82810360a084015261061381856105a1565b9998505050505050505050565b60018060a01b038a1681528860208201528760408201528660608201528560808201528460a082015261012060c08201525f6106606101208301866105a1565b82810360e084015261067281866105a1565b915050826101008301529a995050505050505050505056fe60806040526008805460ff19169055348015610019575f5ffd5b50604051611574380380611574833981016040819052610038916102ad565b6001600160a01b0386166100855760405162461bcd60e51b815260206004820152600f60248201526e24b73b30b634b21031b932b0ba37b960891b60448201526064015b60405180910390fd5b5f85116100d45760405162461bcd60e51b815260206004820152601c60248201527f4d696e696d756d20636f6e747269627574696f6e206973207a65726f00000000604482015260640161007c565b5f83116101235760405162461bcd60e51b815260206004820152601b60248201527f54617267657420636f6e747269627574696f6e206973207a65726f0000000000604482015260640161007c565b4284116101725760405162461bcd60e51b815260206004820152601e60248201527f446561646c696e65206d75737420626520696e20746865206675747572650000604482015260640161007c565b5f8251116101c25760405162461bcd60e51b815260206004820152601660248201527f50726f6a656374207469746c6520697320656d70747900000000000000000000604482015260640161007c565b5f80546001600160a01b0319166001600160a01b03881617905560018590556002849055600383905560066101f783826103cf565b50600761020482826103cf565b50505050505050610489565b634e487b7160e01b5f52604160045260245ffd5b5f82601f830112610233575f5ffd5b81516001600160401b0381111561024c5761024c610210565b604051601f8201601f19908116603f011681016001600160401b038111828210171561027a5761027a610210565b604052818152838201602001851015610291575f5ffd5b8160208501602083015e5f918101602001919091529392505050565b5f5f5f5f5f5f60c087890312156102c2575f5ffd5b86516001600160a01b03811681146102d8575f5ffd5b6020880151604089015160608a015160808b0151939950919750955093506001600160401b03811115610309575f5ffd5b61031589828a01610224565b60a089015190935090506001600160401b03811115610332575f5ffd5b61033e89828a01610224565b9150509295509295509295565b600181811c9082168061035f57607f821691505b60208210810361037d57634e487b7160e01b5f52602260045260245ffd5b50919050565b601f8211156103ca57805f5260205f20601f840160051c810160208510156103a85750805b601f840160051c820191505b818110156103c7575f81556001016103b4565b50505b505050565b81516001600160401b038111156103e8576103e8610210565b6103fc816103f6845461034b565b84610383565b6020601f82116001811461042e575f83156104175750848201515b5f19600385901b1c1916600184901b1784556103c7565b5f84815260208120601f198516915b8281101561045d578785015182556020948501946001909201910161043d565b508482101561047a57868401515f19600387901b60f8161c191681555b50505050600190811b01905550565b6110de806104965f395ff3fe60806040526004361061013c575f3560e01c8063937e09b1116100b3578063c39664091161006d578063c396640914610334578063c3e20c9f14610348578063c59ee1dc1461035c578063d849e94f14610371578063efb98bcf14610385578063ff3a9c7e14610399575f5ffd5b8063937e09b114610291578063af157c19146102a6578063b82c86d6146102c7578063bc7dfa84146102dc578063bef1ef64146102fd578063c19d93fb1461031b575f5ffd5b806342e94c901161010457806342e94c90146101f957806347e4835d146102245780634e260f6f146102435780635413713a146102585780636f9fb98a1461026c57806373e888fd1461027e575f5ffd5b806302d05d3f146101405780630d616d201461017b57806329dcb0cf14610191578063378aa701146101b45780633e0881a9146101d5575b5f5ffd5b34801561014b575f5ffd5b505f5461015e906001600160a01b031681565b6040516001600160a01b0390911681526020015b60405180910390f35b348015610186575f5ffd5b5061018f6103c3565b005b34801561019c575f5ffd5b506101a660025481565b604051908152602001610172565b3480156101bf575f5ffd5b506101c8610566565b6040516101729190610e9f565b3480156101e0575f5ffd5b506101e961058d565b6040519015158152602001610172565b348015610204575f5ffd5b506101a6610213366004610eb3565b60096020525f908152604090205481565b34801561022f575f5ffd5b506008546101e99062010000900460ff1681565b34801561024e575f5ffd5b506101a660055481565b348015610263575f5ffd5b5061018f6105ae565b348015610277575f5ffd5b50476101a6565b61018f61028c366004610eb3565b6107ef565b34801561029c575f5ffd5b506101a660015481565b3480156102b1575f5ffd5b506102ba610a7c565b6040516101729190610ee0565b3480156102d2575f5ffd5b506101a660035481565b3480156102e7575f5ffd5b506102f0610adc565b6040516101729190610f59565b348015610308575f5ffd5b506008546101e990610100900460ff1681565b348015610326575f5ffd5b506008546101c89060ff1681565b34801561033f575f5ffd5b506101c8610b68565b348015610353575f5ffd5b506102f0610b76565b348015610367575f5ffd5b506101a660045481565b34801561037c575f5ffd5b506101c8610b83565b348015610390575f5ffd5b506101a6610c2c565b3480156103a4575f5ffd5b506103ad610c49565b6040516101729a99989796959493929190610f6b565b5f6103cc610daa565b905060018160028111156103e2576103e2610e6b565b1461042b5760405162461bcd60e51b8152602060048201526014602482015273141c9bda9958dd08191a59081b9bdd0819985a5b60621b60448201526064015b60405180910390fd5b335f90815260096020526040902054806104875760405162461bcd60e51b815260206004820152601b60248201527f4e6f20636f6e747269627574696f6e20746f20776974686472617700000000006044820152606401610422565b335f818152600960205260408082208290555190919083908381818185875af1925050503d805f81146104d5576040519150601f19603f3d011682016040523d82523d5f602084013e6104da565b606091505b505090508061052b5760405162461bcd60e51b815260206004820152601a60248201527f436f6e747269627574696f6e20726566756e64206661696c65640000000000006044820152606401610422565b60405182815233907f2ef47cadc7e07ee6cea296446c8ca85ff6955693411d8868f7a04b6850034f08906020015b60405180910390a2505050565b5f60025442101561057657505f90565b600354600454106105875750600290565b50600190565b5f80610597610566565b60028111156105a8576105a8610e6b565b14905090565b5f546001600160a01b031633146105f65760405162461bcd60e51b815260206004820152600c60248201526b27b7363c9031b932b0ba37b960a11b6044820152606401610422565b5f6105ff610daa565b9050600281600281111561061557610615610e6b565b146106625760405162461bcd60e51b815260206004820152601960248201527f50726f6a656374206973206e6f74207375636365737366756c000000000000006044820152606401610422565b60085462010000900460ff16156106bb5760405162461bcd60e51b815260206004820152601760248201527f46756e647320616c72656164792077697468647261776e0000000000000000006044820152606401610422565b47806107005760405162461bcd60e51b81526020600482015260146024820152734e6f2066756e647320746f20776974686472617760601b6044820152606401610422565b6008805462ff00001916620100001790555f80546040516001600160a01b039091169083908381818185875af1925050503d805f811461075b576040519150601f19603f3d011682016040523d82523d5f602084013e610760565b606091505b50509050806107b15760405162461bcd60e51b815260206004820152601960248201527f43726561746f72207769746864726177616c206661696c6564000000000000006044820152606401610422565b5f546040518381526001600160a01b03909116907f0d53b74a6cb6d1fbd9dc6dc1d7714036c7c6a3f48350103a7011041eb32a4c5e90602001610559565b6107f7610b83565b505f60085460ff16600281111561081057610810610e6b565b146108565760405162461bcd60e51b815260206004820152601660248201527550726f6a656374206973206e6f74206f6e676f696e6760501b6044820152606401610422565b6001600160a01b0381166108a25760405162461bcd60e51b815260206004820152601360248201527224b73b30b634b21031b7b73a3934b13aba37b960691b6044820152606401610422565b5f546001600160a01b03908116908216036109105760405162461bcd60e51b815260206004820152602860248201527f43726561746f722063616e6e6f7420636f6e7472696275746520746f206f776e604482015267081c1c9bda9958dd60c21b6064820152608401610422565b6001543410156109625760405162461bcd60e51b815260206004820181905260248201527f436f6e747269627574696f6e20616d6f756e7420697320746f6f206c6f7720216044820152606401610422565b6001600160a01b0381165f9081526009602052604081205490036109dd57600a80546001810182555f9182527fc65a7bb8d6351c1cf70c95a316cc6a92839c986682d98bc35f958f4883f9d2a80180546001600160a01b0319166001600160a01b03841617905560058054916109d783610ff8565b91905055505b6001600160a01b0381165f9081526009602052604081208054349290610a04908490611010565b925050819055503460045f828254610a1c9190611010565b90915550610a2a9050610b83565b50806001600160a01b03167f5cdc4ab8d637538ead6cc1904d4160343656c8c82bd266635cfd31ac008fffe034600454604051610a71929190918252602082015260400190565b60405180910390a250565b6060600a805480602002602001604051908101604052809291908181526020018280548015610ad257602002820191905f5260205f20905b81546001600160a01b03168152600190910190602001808311610ab4575b5050505050905090565b60078054610ae990611023565b80601f0160208091040260200160405190810160405280929190818152602001828054610b1590611023565b8015610b605780601f10610b3757610100808354040283529160200191610b60565b820191905f5260205f20905b815481529060010190602001808311610b4357829003601f168201915b505050505081565b5f610b71610daa565b905090565b60068054610ae990611023565b5f5f610b8d610566565b60085490915060ff166002811115610ba757610ba7610e6b565b816002811115610bb957610bb9610e6b565b14610c21576008805460ff811691839160ff19166001836002811115610be157610be1610e6b565b02179055507fe8a97ea87e4388fa22d496b95a8ed5ced6717f49790318de2b928aaf37a021d88183604051610c1792919061105b565b60405180910390a1505b505060085460ff1690565b5f6002544210610c3b57505f90565b42600254610b719190611076565b5f8054600154600254600354600454600554600680546001600160a01b03909716979596949593949293919260609283929091829190610c8890611023565b80601f0160208091040260200160405190810160405280929190818152602001828054610cb490611023565b8015610cff5780601f10610cd657610100808354040283529160200191610cff565b820191905f5260205f20905b815481529060010190602001808311610ce257829003601f168201915b5050505050935060078054610d1390611023565b80601f0160208091040260200160405190810160405280929190818152602001828054610d3f90611023565b8015610d8a5780601f10610d6157610100808354040283529160200191610d8a565b820191905f5260205f20905b815481529060010190602001808311610d6d57829003601f168201915b50505050509250610d99610566565b915047905090919293949596979899565b5f600254421015610dfd5760405162461bcd60e51b815260206004820152601760248201527f446561646c696e6520686173206e6f74207061737365640000000000000000006044820152606401610422565b5f610e06610b83565b600854909150610100900460ff16610e66576008805461ff0019166101001790556004546003546040517f40f5d4761e954e13fb6f3913116877d1842cf8ab9f5e4ebb4c737c8434ac6d0a92610e5d928592611089565b60405180910390a15b919050565b634e487b7160e01b5f52602160045260245ffd5b60038110610e9b57634e487b7160e01b5f52602160045260245ffd5b9052565b60208101610ead8284610e7f565b92915050565b5f60208284031215610ec3575f5ffd5b81356001600160a01b0381168114610ed9575f5ffd5b9392505050565b602080825282518282018190525f918401906040840190835b81811015610f205783516001600160a01b0316835260209384019390920191600101610ef9565b509095945050505050565b5f81518084528060208401602086015e5f602082860101526020601f19601f83011685010191505092915050565b602081525f610ed96020830184610f2b565b60018060a01b038b1681528960208201528860408201528760608201528660808201528560a082015261014060c08201525f610fab610140830187610f2b565b82810360e0840152610fbd8187610f2b565b915050610fce610100830185610e7f565b826101208301529b9a5050505050505050505050565b634e487b7160e01b5f52601160045260245ffd5b5f6001820161100957611009610fe4565b5060010190565b80820180821115610ead57610ead610fe4565b600181811c9082168061103757607f821691505b60208210810361105557634e487b7160e01b5f52602260045260245ffd5b50919050565b604081016110698285610e7f565b610ed96020830184610e7f565b81810381811115610ead57610ead610fe4565b606081016110978286610e7f565b60208201939093526040015291905056fea264697066735822122099e679974bca8013ed28105ec2ba1d7ef3da685ac970f95f30aa46103d37df1b64736f6c634300081c0033a26469706673582212200feb03dbf2a9f06b9db5698b25d443517a7036857fae6e84d4d82d8dedf45bca64736f6c634300081c0033",
  "linkReferences": {},
  "deployedLinkReferences": {},
  "immutableReferences": {},
  "inputSourceName": "project/contracts/Crowdfunding.sol",
  "buildInfoId": "solc-0_8_28-e209fa0aadceec1ba003dfcddbbfc83841e2b1ad"
}